:020000040800F2
:1000000058050020490100081D590008A9110008E1
:1000100019590008C50A00081B71000800000000FB
:1000200000000000000000000000000091620008D5
:10003000AD0B000800000000B1590008356400084D
:100040006301000863010008630100087D5F000888
:100050006301000863010008B10B00086301000898
:100060000D0C0008650C0008F10C00086301000885
:1000700063010008630100086301000863010008D0
:1000800063010008630100086301000863010008C0
:10009000630100086301000863010008450D0008C2
:1000A00063010008630100086301000863010008A0
:1000B0006301000863010008C567000863010008C8
:1000C0006301000863010008630100086301000880
:1000D00063010008F96E000863010008630100086D
:1000E0006301000863010008630100086301000860
:1000F0006301000863010008630100086301000850
:10010000630100086301000863010008630100083F
:10011000630100086301000863010008630100082F
:10012000630100086301000863010008630100081F
:10013000DFF810D000F042FB00480047217B0008A8
:10014000AFF3008058050020064880470648004766
:10015000FEE7FEE7FEE7FEE7FEE7FEE7FEE7FEE777
:10016000FEE7FEE7396400083101000840EA0103B8
:100170009B0703D009E008C9121F08C0042AFAD25D
:1001800003E011F8013B00F8013B521EF9D2704721
:100190002DE9FE4F81EA030404F0004421F0004100
:1001A00000944FF0000B23F0004350EA01045ED0AE
:1001B00052EA03045BD0C3F30A54C1F30A552C443A
:1001C000A4F2F3340194A0FB0254C1F3130141F4EF
:1001D0008011C3F3130343F4801301FB024400FBBB
:1001E000034E840A970A44EA815447EA8357A4FBE2
:1001F000076802958D0A05FB07854FEA932C04FBDF
:100200000C542705029D4FEA065847EA1637B5EB0E
:1002100008056EEB070C870E920E47EA811742EA3B
:100220008312A7FB0201B6EB0B0164EB00042B0D5C
:1002300043EA0C335E1844EB1C50DA465146E7FBA8
:100240000201C5F313044FEA0B3343EA14534FEA98
:100250000432019C43EA0603A4F10C040294009CBE
:10026000CDE900B400F02DF903B0BDE8F08F002017
:100270000146F9E796230022114600F0E5B80EB5D5
:1002800040F2334102910021CDE900110A460B46AC
:1002900000F017F903B000BDC1F30A5210B5C1F365
:1002A000130140F2FF3341F480119A4201DA002039
:1002B00010BD40F233439A42A2F2334203DC524271
:1002C00000F0A9F810BD904010BD00F0004230F0E1
:1002D00000400AD0C10D01F56071C0F3160042EA7A
:1002E0000151C20840071143704700200146704782
:1002F00030B5041E71F1000404DB4FF000444042AD
:1003000064EB0101141E73F1000405DB1C464FF081
:100310000043524263EB04038B4208BF824230BD6C
:1003200030B5041E71F1000404DB4FF0004440427C
:1003300064EB0101141E73F1000405DB1C464FF051
:100340000043524263EB0403994208BF904230BD20
:1003500001F0004330B421F0004150EA010206D020
:100360000A0DA2F56072C1F31301002A02DC30BC51
:1003700000207047440F44EAC104C100E01830BCBB
:1003800000EBC25000F057B830B50B4601460020D4
:100390002022012409E021FA02F59D4205D303FA47
:1003A00002F5491B04FA02F52844151EA2F10102C8
:1003B000F1DC30BD2DE9F05F0546002092469B46FA
:1003C00088460646814640241BE02846414647466B
:1003D000224600F020F853465A46C01A914110D3E5
:1003E00011461846224600F0FBF92D1A67EB01086A
:1003F0004F4622460120002100F0F2F917EB0009D8
:100400004E41201EA4F10104DFDC484631462A4655
:100410004346BDE8F09F202A04DB203A21FA02F08F
:100420000021704721FA02F3D040C2F1200291402E
:100430000843194670470029A8BF7047401C49006F
:1004400008BF20F00100704710B4B0FA80FC00FA39
:100450000CF050EA010404BF10BC704749B1CCF164
:10046000200421FA04F411FA0CF118BF01212143F0
:100470000843A3EB0C01CB1D4FEA00614FEA1020AB
:1004800042BF002010BC704700EBC350104400294D
:10049000A4BF10BC7047401C490008BF20F00100F9
:1004A00010BC704710B5141E73F1000408DA401C2C
:1004B00041F1000192185B411A4301D120F0010083
:1004C00010BD2DE9F04D92469B4611B1B1FA81F273
:1004D00002E0B0FA80F22032904600F081F9044642
:1004E0000F4640EA0A0041EA0B0153465A460843C8
:1004F00013D0114653EA010019D0C8F1400250460A
:10050000FFF789FF05460E4650465946424600F021
:1005100067F9084305D0012004E020463946BDE8CC
:10052000F08D0020054346EAE0762C4337430A98D5
:100530006305E40AA0EB08000022FD0A44EA4754E0
:100540000A3002D500200146E9E70105101969418A
:10055000DDE9084500196941BDE8F04DA2E72DE944
:10056000FE4F804681EA0300C00F0C46009021F048
:10057000004123F00045B8EB0200A94105D24046F6
:10058000214690461C460B46024623F0004010438D
:1005900047D0270DC7F30A00C3F30A510290401A4F
:1005A000019040286BDAC3F3130040F4801B0098DD
:1005B000924620B10023D2EB030A63EB0B0B0198A8
:1005C0005946C0F14002504600F00AF906460D4671
:1005D00050465946019A00F012F910EB08006141AB
:1005E000002487EA115284EAE7731A4340D0009A44
:1005F00062B3019A012A4FEA075215DC001B61EB36
:1006000002014FF0004202EA0752CDE90042001C0D
:1006100041F5801132462B46FFF753FF03B0BDE88A
:10062000F08F40462146F9E7001B61EB0201001CF8
:1006300041F5801300185B412018A2F5001747EB25
:10064000030140EAD570B6196D4111E06D084FEA1B
:10065000360645EAC0754FEA0752001B61EB0201FE
:10066000001C41F5801149084FEA30000019514142
:1006700032462B4603B0BDE8F04FFFF713BF00989A
:10068000012240000023D0EB020263EBE0730098EC
:1006900021464FEAE074B8EB000061EB0401E9E7A2
:1006A00083F000435BE781F0004158E72DE9F04D0E
:1006B00081EA030404F0004B21F0004514464FF09A
:1006C000000A23F0004150EA050220D054EA01025A
:1006D0001DD0C5F30A570246C5F31303C1F3130037
:1006E000C1F30A5640F4801543F48013A7EB0608C3
:1006F000101BD64608F2FD3873EB050002D308F153
:10070000010801E092185B41B8F1000F03DA002004
:100710000146BDE8F08D00204FF480110646844666
:100720000EE0171B73EB050705D3121B63EB0503E4
:1007300006434CEA010C49084FEA300092185B412D
:1007400050EA0107EDD152EA030012D082EA040018
:1007500083EA0501084305D0101BAB4106D20122F4
:10076000002306E000224FF0004302E06FF0010298
:1007700053101AEB06004CEB085110EB0A0041EB4A
:100780000B01BDE8F04DFFF78DBEC1F30A52C1F376
:10079000130140F2FF3341F480119A4202DA002043
:1007A0000146704740F233439A42A2F2334202DCE0
:1007B0005242FFF730BE00F013B80000064C074D60
:1007C00006E0E06840F0010394E807009847103421
:1007D000AC42F6D3FFF7B0FC58A8000878A8000890
:1007E000202A04DB203A00FA02F1002070479140F1
:1007F000C2F1200320FA03F3194390407047202AE6
:1008000006DBCB17203A41FA02F043EAE07306E038
:1008100041FA02F3D040C2F1200291400843194648
:10082000704721B1826842F00102826003E0826871
:1008300022F0010282607047014600208A6802F0BF
:1008400004020AB1012000E0002070470146C86C94
:1008500080B270470246002013680B400BB10120A4
:1008600000E000207047014600208A6802F008027C
:100870000AB1012000E000207047000030B50246B8
:100880000020002350680F4C20400D790C6844EA8A
:1008900005242043506090680B4C2040D1E902545D
:1008A0002C434D7944EA450420439060D06A20F4FB
:1008B00070000C7C641EE4B2234340EA0350D06213
:1008C00030BD0000FFFEF0FFFDF7F1FFF0B504467C
:1008D0000D4600200021092D11DDE068A5F10A0672
:1008E00006EB4607072606FA07F18843A5F10A0634
:1008F00006EB460603FA06F10843E0600CE02069C7
:1009000005EB4507072606FA07F1884305EB450680
:1009100003FA06F108432061072A0FDA606B561EBE
:1009200006EB86071F2606FA07F18843561E06EBDC
:10093000860605FA06F10843606322E00D2A0FDA05
:10094000206BD61F06EB86071F2606FA07F18843A1
:10095000D61F06EB860605FA06F10843206310E071
:10096000E06AA2F10D0606EB86071F2606FA07F1DC
:100970008843A2F10D0606EB860605FA06F1084348
:10098000E062F0BD816841F008018160704721B1EB
:10099000826842F4A002826003E0826822F4A0022E
:1009A00082607047816841F00401816070470000F7
:1009B00000B587B001214FF4017005F027F84FF41E
:1009C000004004F0F7FF0220ADF8180000208DF879
:1009D0001B0003208DF81A0006A9184800F00AFB36
:1009E000002001908DF808008DF809004FF4602078
:1009F00003900020049001208DF8140001A91048F4
:100A0000FFF73CFF01210E48FFF70BFF0C48FFF7F3
:100A1000B9FF00BF0A48FFF726FF0028FAD10848AF
:100A2000FFF7C0FF00BF0648FFF706FF0028FAD116
:100A300001210348FFF7ABFF07B000BD00080140EC
:100A40000024014008B50121082004F0DFFF4FF425
:100A50008070ADF8000010208DF8030003208DF8A1
:100A600002006946044800F0C5FA4FF4807102485C
:100A700000F054FB08BD0000000C014010B501203F
:100A800004F0D4FF002004F0D1FF10BD08B50146EA
:100A900000200090034800900098084400900098BF
:100AA000008808BD006C004008B500220092044A8E
:100AB0000092009A02440092009A116008BD000062
:100AC000006C004000BFFEE72DE9FF4F0746884657
:100AD00092461C46DDF838B00026B1462046E217A3
:100AE00004EB5272D2102146E31704EB5373DB1070
:100AF000A4EBC3030BB1012300E000231A446243BB
:100B0000D2B20192002546E00AEBCA00244901EB6B
:100B1000C000405D03900020029036E0039800F092
:100B2000800080B106EB0B0090FBF4F104FB110098
:100B3000404480B2009007EB09001A490A880099E6
:100B400000F032FD0FE006EB0B0090FBF4F104FB2C
:100B50001100404480B2009007EB090012490A8856
:100B6000009900F021FD03984006000E0390701CD0
:100B7000C6B2A64205D1002609F1010000F0FF0926
:100B800006E00298401CC0B2029002980828C5DB1B
:100B900000BF681CC5B201988542B5DBBDE8FF8F78
:100BA000888B000866000020680000207047000065
:100BB00010B5012000F012F9012817D10D48006886
:100BC000012813D10C490860642006F04FFF002073
:100BD0000A49C1F8A0010A49C1F8940109480078FE
:100BE000401C08490870002007490870012000F0E7
:100BF000EFF810BD00012142A08121420080214276
:100C000000002342290000202E00002010B50420FF
:100C100000F0E4F8012817D10D480068A0B90120C0
:100C20000C490860642006F021FF00200A49C1F841
:100C3000A0010A48007808B9012000E00020074917
:100C40000870012006490870042000F0C1F810BDAA
:100C500008012342A0812142008021422800002077
:100C60002E00002010B5082000F0B8F801282DD182
:100C70001848006850BB012017490860642006F03E
:100C8000F5FE00201549C1F8A00115480078154966
:100C9000087013484078401C1349087008460078D3
:100CA0003B2806DD002008700E480078401C0D49E6
:100CB000087005F00BF9441D204605F0A1FA02204A
:100CC0000A4908700120034988310860082000F0B3
:100CD0007FF810BD0C012342A081214200802142F7
:100CE000740000202C0000202B0000202E0000208B
:100CF00010B5102000F072F8012814D10C480068DB
:100D000088B901200B490860642006F0AFFE00207E
:100D10000949C1F8A00109480078401C074908703A
:100D2000032007490870102000F052F810BD0000A1
:100D300010012342A0812142008021422A0000208C
:100D40002E0000202DE9F04100240026002530E08F
:100D50004FF400711B4800F0D8F9012829D100F0A8
:100D60000BFA0446FA2C00DB24E0C82C03DBFA2C37
:100D700001DA01260AE03C2C03DB5A2C01DA0127B8
:100D800004E00A2C02DB322C00DA0027012E0ED1FF
:100D90000D48006840000C49086008460068384467
:100DA0000860202D03DB01200849087002E0681C60
:100DB000C5B2CDE700BF4FF4007000F009F8BDE800
:100DC000F0810000000C0140540000205800002079
:100DD00001490860704700001404014001460020EA
:100DE0000022074B1B6803EA0102054B14331B6802
:100DF0000B4013B10AB1012000E000207047000051
:100E000000040140002123498279002A3AD00A4691
:100E1000126803689A430B461A600A1D1268036839
:100E20009A430B1D1A60027911440A6803681A4339
:100E30000A60184A0832126803689A43154B08334F
:100E40001A601A1D126803689A43124B0C331A6019
:100E50004279102A0ED11A1F126803681A430D4BEB
:100E600008331A601A1D126803681A43094B0C33C1
:100E70001A600DE00749427911440A6803681A4371
:100E80000A6005E0027911440A6803689A430A601F
:100E9000704700000004014051B18200A2F1C0423D
:100EA000126842F001038200A2F1C042136009E01F
:100EB0008200A2F1C0421268034B1A408300A3F1E2
:100EC000C0431A6070470000FEFF0F00D0E9011216
:100ED0001143C26811430269114342691143826997
:100EE0001143C2691143026A1143426A1143826A83
:100EF0001143C26A1143026B114302689200A2F1CE
:100F0000C0421160816808290BD101688900A1F1F4
:100F1000C041096841F0400201688900A1F1C04167
:100F20000A60416B0968426B526841EA0211426BE8
:100F3000926841EA0221426B928941EA0241426B86
:100F4000128A41EA0251426B127D41EA0261426B10
:100F5000926911430268521C9200A2F1C0421160D2
:100F6000C16AB1F5804F1BD1816B0968826B5268F1
:100F700041EA0211826B926841EA0221826B128A75
:100F800041EA0251826B127D41EA0261826B9269F1
:100F9000114302689200A2F1C042C2F8041107E0B6
:100FA0006FF0704201688900A1F1C041C1F80421CD
:100FB0007047000030B500228B071C0F0F2303FA87
:100FC00004F20B4B8C1053F824309343084C8D10D3
:100FD00044F8253023468C1053F824308C07240F16
:100FE00000FA04F42343024C8D1044F8253030BD40
:100FF000080001402DE9F0410246002500260020AE
:1010000000230024002791F803C00CF00F0591F88D
:1010100003C00CF0100CBCF1000F03D091F802C01B
:101020004CEA050591F800C0BCF1000F31D01468FE
:1010300000202BE04FF0010C0CFA00F3B1F800C0D7
:101040000CEA03069E4220D183004FF00F0C0CFAED
:1010500003F7BC4305FA03FC4CEA040491F803C00F
:10106000BCF1280F06D14FF0010C0CFA00FCC2F8BD
:1010700014C00AE091F803C0BCF1480F05D14FF04D
:10108000010C0CFA00FCC2F810C0401C0828D1D397
:101090001460B1F800C0BCF1FF0F34DD54680020CB
:1010A0002EE000F1080C4FF0010808FA0CF3B1F83B
:1010B00000C00CEA03069E4221D183004FF00F0CC2
:1010C0000CFA03F7BC4305FA03FC4CEA040491F85C
:1010D00003C0BCF1280F05D100F1080C08FA0CF888
:1010E000C2F8148091F803C0BCF1480F07D100F199
:1010F000080C4FF0010808FA0CF8C2F81080401CE8
:101100000828CED35460BDE8F081024600209368E1
:101110000B400BB1012000E0002070474161704797
:10112000016170472DE9F04105460C460026072372
:10113000012229460F48FFF7C9FB002713E00121D0
:101140000C48FFF724FC00BF02210A48FFF782FB8E
:101150000028F9D00748FFF779FB0644052006F080
:1011600085FC781CC7B2A742E9DBB6FBF4F080B27D
:10117000BDE8F0810024014010B5002408E0601CA7
:10118000C4B2142006F098FCFA2C01DB204610BDF6
:101190004FF400710348FFF7B8FF0128EFD0204655
:1011A000F5E70000000C014000BFFEE71FB501217C
:1011B000092004F02BFC4FF40070ADF80C0048201F
:1011C0008DF80F0003A91448FFF714FF092101202F
:1011D000FFF7F0FE4FF40070FFF7FAFD4FF40070D8
:1011E000019000208DF808000C208DF809000120E6
:1011F0008DF80A0001A8FFF705FE17208DF8000002
:1012000000208DF8010001208DF802008DF8030008
:10121000684604F085FB1FBD000C01400146CA175B
:1012200001EB92729210A1EB820292B9642091FBC1
:10123000F0F200FB121050B94FF4C87091FBF0F2BD
:1012400000FB121008B9012070470020FCE70120C4
:10125000FAE70020F8E7000008B50121442004F077
:10126000D5FB0120ADF8000028208DF80300694669
:101270000648FFF7BFFE1C20ADF8000048208DF89F
:10128000030069460248FFF7B5FE08BD00080140AB
:101290000018014010B50446012C01D12249087004
:1012A0002148007801282AD12048006801280AD066
:1012B0001F48006838B11E48001F006818B11C485C
:1012C00008380068D8B9642006F0D0FB0020164921
:1012D000087016480068012800D110BD1448006845
:1012E00008B90220F9E71248001F006808B9032076
:1012F000F3E70F4808380068A0B90420EDE70B4871
:10130000006878B90A48006801280BD10848001F16
:101310000068012806D1064808380068012801D174
:10132000014908700020D8E74C000020000121424C
:101330001001234270B504460026194805884088EC
:1013400045431748808846F60401884216D1144860
:101350008079012812D10020114988712A20488102
:101360002B2088810021084604F064F801200C49F4
:1013700088712B2048812A20888103E000210846BB
:1013800004F058F804F090FA002605E02012054910
:101390000880E0B20880761CAE42F7D370BD000032
:1013A000460100200008006C10B50446002C73D1E3
:1013B0007C498871F02008804FF4A070488008466E
:1013C000808849F24131884211D07648808846F6BB
:1013D000040188420BD07348808845F2103188425E
:1013E00005D07048808849F28841884220D12C205D
:1013F0006C4908812A2048812B20888108468088F2
:1014000046F6040188420BD06648808845F21031C8
:10141000884205D06348808849F28841884206D1D5
:101420004FF4A0705F4908804FF4F0704880B4E03A
:101430005C48808845F21051884210D14FF43050FA
:10144000584908814FF4285048814FF42C50888126
:101450004FF4F07008804FF4487048809DE0514888
:10146000808841F6631188420DD12C204D490881B6
:101470002B2048812A2088814FF4F07008804FF497
:101480004870488089E02220464908812020488110
:101490002120888181E0FFE70120424988714FF4D3
:1014A000A0700880F02048800846808849F24131C9
:1014B00088420BD03B48808845F21031884205D0E5
:1014C0003848808849F2884188420DD12C2035491E
:1014D00008812A2048812B2088814FF4F0700880F1
:1014E0004FF4A07048803FE02E48808846F6040103
:1014F000884207D12C202B4908812B2048812A20A3
:10150000888131E02748808845F21051884210D107
:101510004FF43050234908814FF4285048814FF44C
:101520002C5088814FF4487008804FF4F070488048
:101530001AE01C48808841F6631188420DD12C20A6
:10154000184908812A2048812B2088814FF448704F
:1015500008804FF4F070488006E02220114908818D
:1015600021204881202088810E48808846F6040189
:1015700088420BD00B48808845F21031884205D054
:101580000848808849F28841884206D14FF4F070BB
:10159000044908804FF4A0704880022003F0CEFD7B
:1015A00010BD00004601002030B503460C4615462C
:1015B0006F48808849F24131884205D06C48808864
:1015C00045F21031884214D16949488904F066F91E
:1015D000181204F05DF9D8B204F05AF96449888908
:1015E00004F05CF9201204F053F9E0B204F050F971
:1015F000B3E05F48808845F21051884220D15C49B1
:10160000488904F04BF9181204F042F95849498905
:10161000491C88B204F042F9D8B204F039F95449AF
:10162000888904F03BF9201204F032F95049898985
:10163000491C88B204F032F9E0B204F029F98CE0D8
:101640004B48808841F66311884228D14848807908
:1016500020B947480088401EC01A83B244494889CF
:1016600004F01CF9181204F013F9D8B204F010F9C0
:10167000181204F00DF9D8B204F00AF93C4988892F
:1016800004F00CF9201204F003F9E0B204F000F9C0
:10169000201204F0FDF8E0B204F0FAF85DE03448FE
:1016A000808846F6040188421DD13148807901289E
:1016B00004D12F480088401EC01A83B22C494889A3
:1016C00004F0ECF8181204F0E3F8D8B204F0E0F8F3
:1016D0002749888904F0E2F8201204F0D9F8E0B232
:1016E00004F0D6F839E02248808849F288418842DF
:1016F00020D11F49488904F0D1F8181204F0C8F825
:10170000D8B204F0C5F8181204F0C2F8D8B204F048
:10171000BFF81749888904F0C1F8201204F0B8F81E
:10172000E0B204F0B5F8201204F0B2F8E0B204F030
:10173000AFF812E00E488079012804D10C480088E7
:10174000401EC01A83B20A494889194604F0B6F807
:1017500007498889214604F0B1F805480089054900
:1017600008802812891C0880E8B2088030BD00007B
:1017700046010020FE07006C00B59FB00121080261
:1017800004F024F901214FF4F47004F03FF904202F
:10179000ADF8780010208DF87B0003208DF87A00DA
:1017A0001EA9FE48FFF726FC642006F05FF904211D
:1017B000FA48FFF7B3FC642006F058F90421F74813
:1017C000FFF7AEFC642006F051F94FF40040ADF88D
:1017D000780010208DF87B0003208DF87A001EA978
:1017E000EF48FFF707FC4CF23370ADF87800182093
:1017F0008DF87B0003208DF87A001EA9E948FFF7D9
:10180000F9FB4FF68070ADF8780018208DF87B005A
:1018100003208DF87A001EA9E048FFF7EBFB41F2A8
:101820000100ADF8780018208DF87B0003208DF8BA
:101830007A001EA9DC48FFF7DDFB0120089000209C
:1018400009900F200A9000200B900C900D900E90A4
:1018500001900290032003900020049005900690D0
:10186000079006200F9000201090119010201290E9
:101870000020139015901490169017904FF48050FC
:101880001890002019904FF480401A9000201B906F
:1018900008A81C9001A81D900FA8FFF717FB0121B5
:1018A0000620FFF7F9FA322006F0E0F849F2884006
:1018B000BE49888008468088FF280ADB0846808861
:1018C0004FF6FF71884204D0B8488088B0F5134FB6
:1018D0007ED1D32003F0E2FF03F0FCFBB349888004
:1018E00003F0F8FBB149888003F0F4FBAF4988802E
:1018F000084680884FF6FF7101EA0020AB498880D6
:1019000003F0E8FBA94989880843A849888008466C
:10191000808849F2413188425AD0A448808849F2EF
:1019200088418842F8D0BF2003F0B8FF03F0D2FB13
:101930009E49888003F0CEFB9C49888003F0CAFB57
:101940009A49888003F0C6FB9849888008468088B9
:101950004FF6FF7101EA00209449888003F0BAFB3A
:10196000924989880843914988800846808846F6CC
:10197000040188427AD0D42003F090FF03F0AAFB40
:101980008A49888003F0A6FB8849888003F0A2FB7F
:1019900086498880084680884FF6FF7101EA00205A
:1019A0008249888003F096FB8049898808437F49F3
:1019B00088800846808845F21031884256D04FF41E
:1019C0005A4003F06BFF03F085FB7849888000E004
:1019D0004CE04FF45B4003F061FF03F07BFB734985
:1019E0008880084680884FF6FF7101EA00206F4921
:1019F00088804FF45C4003F051FF03F06BFB6B49B0
:101A0000898808436949888008468088B0F5004F76
:101A100002D145F2105088806448808845F2105108
:101A2000884223D0A12003F039FF03F053FB5F4924
:101A3000888003F04FFB5D498880084680884FF618
:101A4000FF7101EA00205949888003F043FB5749A0
:101A500089880843554988800846808845F2617125
:101A6000884203D141F66310504988804F488088EE
:101A700049F2413188427CD1CF2003F00FFF002092
:101A800003F006FFC12003F003FF302003F000FF46
:101A9000ED2003F003FF642003F0FAFE032003F0BF
:101AA000F7FE122003F0F4FE812003F0F1FEE8209F
:101AB00003F0F4FE852003F0EBFE102003F0E8FEB7
:101AC0007A2003F0E5FECB2003F0E8FE392003F096
:101AD000DFFE2C2003F0DCFE002003F0D9FE3420D2
:101AE00003F0D6FE022003F0D3FEF72003F0D6FE6B
:101AF000202003F0CDFEEA2003F0D0FE002003F00A
:101B0000C7FE002003F0C4FEC02003F0C7FE1B2068
:101B100003F0BEFEC12003F0C1FE012003F0B8FEB9
:101B2000C52003F0BBFE302003F0B2FE302003F0EE
:101B3000AFFEC72003F0B2FEB72003F0A9FE3620A7
:101B400003F0ACFE482003F0A3FE3A2003F0A6FE0B
:101B5000552003F09DFEB12003F0A0FE002003F00D
:101B600097FE1A2003F094FEB62003F097FE0A2099
:101B700000E0A5E003F08CFEA22003F089FEF22035
:101B800003F08CFE002003F083FE262003F086FE87
:101B9000012003F07DFEE0200AE000000018014073
:101BA000000C0140001401400020014046010020CB
:101BB00003F074FE0F2003F06BFE2A2003F068FE92
:101BC000282003F065FE082003F062FE0E2003F0DB
:101BD0005FFE082003F05CFE542003F059FEA920AC
:101BE00003F056FE432003F053FE0A2003F050FE9C
:101BF0000F2003F04DFE002003F04AFE002003F00A
:101C000047FE002003F044FE002003F041FEE120E7
:101C100003F044FE002003F03BFE152003F038FEE5
:101C2000172003F035FE072003F032FE112003F0E9
:101C30002FFE062003F02CFE2B2003F029FE562059
:101C400003F026FE3C2003F023FE052003F020FED7
:101C5000102003F01DFE0F2003F01AFE3F2003F0BA
:101C600017FE3F2003F014FE0F2003F011FE2B207F
:101C700003F014FE002003F00BFE002003F008FE2A
:101C8000012003F005FE3F2003F002FE2A2003F0AE
:101C900005FE002003F0FCFD002003F0F9FD00200C
:101CA00003F0F6FDEF2003F0F3FD112003F0F6FD45
:101CB000782005F0DBFE292003F0F0FD03F0F2B9F7
:101CC000FE48808849F2884188427CD1F72003F0A1
:101CD000E5FDA92003F0DCFD512003F0D9FD2C2007
:101CE00003F0D6FD822003F0D3FDC02003F0D6FD23
:101CF000112003F0CDFD092003F0CAFDC12003F03F
:101D0000CDFD412003F0C4FDC52003F0C7FD002038
:101D100003F0BEFD0A2003F0BBFD802003F0B8FDF8
:101D2000B12003F0BBFDB02003F0B2FD112003F0A1
:101D3000AFFDB42003F0B2FD022003F0A9FDB620F0
:101D400003F0ACFD022003F0A3FD222003F0A0FD70
:101D5000B72003F0A3FDC62003F09AFDBE2003F0D8
:101D60009DFD002003F094FD042003F091FDE92087
:101D700003F094FD002003F08BFD362003F08EFD70
:101D8000082003F085FD3A2003F088FD552003F07C
:101D90007FFDE02003F082FD002003F079FD0720A5
:101DA00003F076FD102003F073FD092003F070FDB1
:101DB000172003F06DFD0B2003F06AFD412003F0B6
:101DC00067FD892000E050E003F062FD4B2003F046
:101DD0005FFD0A2003F05CFD0C2003F059FD0E208E
:101DE00003F056FD182003F053FD1B2003F050FDB7
:101DF0000F2003F04DFDE12003F050FD002003F023
:101E000047FD172003F044FD1A2003F041FD042094
:101E100003F03EFD0E2003F03BFD062003F038FDED
:101E20002F2003F035FD452003F032FD432003F061
:101E30002FFD022003F02CFD0A2003F029FD0920CC
:101E400003F026FD322003F023FD362003F020FDB1
:101E50000F2003F01DFD112003F020FD782005F078
:101E600005FE292003F01AFD28E79448808846F6ED
:101E7000040188427ED1112003F010FD142005F0EA
:101E8000F5FDD02003F00AFD072003F001FD4220FC
:101E900003F0FEFC1D2003F0FBFCD12003F0FEFC50
:101EA000002003F0F5FC1A2003F0F2FC092003F0F7
:101EB000EFFCD22003F0F2FC012003F0E9FC222029
:101EC00003F0E6FCC02003F0E9FC102003F0E0FC86
:101ED0003B2003F0DDFC002003F0DAFC022003F0DD
:101EE000D7FC112003F0D4FCC52003F0D7FC03205D
:101EF00003F0CEFCC82003F0D1FC002003F0C8FCA6
:101F0000252003F0C5FC212003F0C2FC052003F0CE
:101F1000BFFC002003F0BCFC0A2003F0B9FC6520E4
:101F200003F0B6FC252003F0B3FC772003F0B0FCEF
:101F3000502003F0ADFC0F2003F0AAFC002003F0BA
:101F4000A7FCF82003F0AAFC012003F0A1FCFE206E
:101F500003F0A4FC002003F09BFC022003F098FC9B
:101F6000202003F09BFC362003F098FC082003F0AF
:101F70008FFC00E02AE03A2003F090FC552003F0AB
:101F800087FC2B2003F08AFC002003F081FC00205A
:101F900003F07EFC012003F07BFC3F2003F078FC83
:101FA0002A2003F07BFC002003F072FC002003F0E9
:101FB0006FFC012003F06CFCDF2003F069FC78204B
:101FC00005F054FD292003F069FC77E63B48808842
:101FD00045F21031884240F07C87ED2003F05EFC32
:101FE000012003F055FCFE2003F052FCEE2003F02C
:101FF00055FCDE2003F04CFC212003F049FCF120CD
:1020000003F04CFC012003F043FCDF2003F046FC0E
:10201000102003F03DFCC42003F040FC8F2003F0AF
:1020200037FCC62003F03AFC002003F031FCE2202C
:1020300003F02EFCE22003F02BFCE22003F028FC4E
:10204000BF2003F02BFCAA2003F022FCB02003F0F9
:1020500025FC0D2003F01CFC002003F019FC0D20D2
:1020600003F016FC002003F013FC112003F010FC19
:10207000002003F00DFC192003F00AFC002003F0FF
:1020800007FC212003F004FC002003F001FC2D20BC
:1020900003F0FEFB002003F0FBFB3D2003F0F8FB08
:1020A000002003F0F5FB5D2003F0F2FB002003F0BD
:1020B000EFFB5D2003F0ECFB002001E04601002077
:1020C00003F0E6FBB12003F0E9FB802003F0E0FB26
:1020D000002003F0DDFB8B2003F0DAFB002003F08F
:1020E000D7FB962003F0D4FB002003F0D1FBB220F5
:1020F00003F0D4FB002003F0CBFB002003F0C8FB6F
:10210000022003F0C5FB002003F0C2FB032003F014
:10211000BFFB002003F0BCFBB32003F0BFFB00209B
:1021200003F0B6FB002003F0B3FB002003F0B0FB8C
:10213000002003F0ADFB002003F0AAFB002003F019
:10214000A7FB002003F0A4FB002003F0A1FB00206C
:1021500003F09EFB002003F09BFB002003F098FBA4
:10216000002003F095FB002003F092FB002003F019
:102170008FFB002003F08CFB002003F089FB002084
:1021800003F086FB002003F083FB002003F080FBBC
:10219000002003F07DFB002003F07AFB002003F019
:1021A00077FB002003F074FB002003F071FBB420E8
:1021B00003F074FB8B2003F06BFB002003F068FB43
:1021C000962003F065FB002003F062FBA12003F0E2
:1021D0005FFB002003F05CFBB52003F05FFB0220F7
:1021E00003F056FB002003F053FB032003F050FBE9
:1021F000002003F04DFB042003F04AFB002003F015
:1022000047FBB62003F04AFB002003F041FB00200F
:1022100003F03EFBB72003F041FB002003F038FB46
:10222000002003F035FB3F2003F032FB002003F0D9
:102230002FFB5E2003F02CFB002003F029FB642021
:1022400003F026FB002003F023FB8C2003F020FB8F
:10225000002003F01DFBAC2003F01AFB002003F06C
:1022600017FBDC2003F014FB002003F011FB7020AF
:1022700003F00EFB002003F00BFB902003F008FBA3
:10228000002003F005FBEB2003F002FB002003F02D
:10229000FFFADC2003F0FCFA002003F0F9FAB82082
:1022A00003F0FCFA002003F0F3FA002003F0F0FA48
:1022B000002003F0EDFA002003F0EAFA002003F01A
:1022C000E7FA002003F0E4FA002003F0E1FA00202E
:1022D00003F0DEFABA2003F0E1FA242003F0D8FA82
:1022E000002003F0D5FA002003F0D2FA002003F01A
:1022F000CFFAC12003F0D2FA202003F0C9FA00205F
:1023000003F0C6FA542003F0C3FA002003F0C0FA29
:10231000FF2003F0BDFA002003F0BAFAC22003F058
:10232000BDFA0A2003F0B4FA002003F0B1FA042049
:1023300003F0AEFA002003F0ABFAC32003F0AEFACC
:102340003C2003F0A5FA002003F0A2FA3A2003F0A3
:102350009FFA002003F09CFA392003F099FA00203C
:1023600003F096FA372003F093FA002003F090FA76
:102370003C2003F08DFA002003F08AFA362003F0A7
:1023800087FA002003F084FA322003F081FA00205B
:1023900003F07EFA2F2003F07BFA002003F078FA96
:1023A0002C2003F075FA002003F072FA292003F0C4
:1023B0006FFA002003F06CFA262003F069FA00207F
:1023C00003F066FA242003F063FA002003F060FAB9
:1023D000242003F05DFA002003F05AFA232003F0D2
:1023E00057FA002003F054FA3C2003F051FA002081
:1023F00003F04EFA362003F04BFA002003F048FABF
:10240000322003F045FA002003F042FA2F2003F0B7
:102410003FFA002003F03CFA2C2003F039FA0020A8
:1024200003F036FA292003F033FA002003F030FAE3
:10243000262003F02DFA002003F02AFA242003F0CE
:1024400027FA002003F024FA242003F021FA0020C8
:1024500003F01EFA232003F01BFA002003F018FA01
:10246000C42003F01BFA622003F012FA002003F0EC
:102470000FFA052003F00CFA002003F009FA84207B
:1024800003F006FA002003F003FAF02003F000FA4C
:10249000002003F0FDF9182003F0FAF9002003F002
:1024A000F7F9A42003F0F4F9002003F0F1F9182063
:1024B00003F0EEF9002003F0EBF9502003F0E8F907
:1024C000002003F0E5F90C2003F0E2F9002003F00E
:1024D000DFF9172003F0DCF9002003F0D9F995208B
:1024E00003F0D6F9002003F0D3F9F32003F0D0F97C
:1024F000002003F0CDF9E62003F0CAF9002003F034
:10250000C7F9C52003F0CAF9322003F0C1F9002051
:1025100003F0BEF9442003F0BBF9002003F0B8F942
:10252000652003F0B5F9002003F0B2F9762003F03E
:10253000AFF9002003F0ACF9882003F0A9F90020DE
:1025400003F0A6F9C62003F0A9F9202003F0A0F9B2
:10255000002003F09DF9172003F09AF9002003F002
:1025600097F9012003F094F9002003F091F9C720B6
:1025700003F094F9002003F08BF9002003F088F9B0
:10258000002003F085F9002003F082F9C82003F051
:1025900085F9002003F07CF9002003F079F9002090
:1025A00003F076F9002003F073F9C92003F076F9FF
:1025B000002003F06DF9002003F06AF9002003F019
:1025C00067F9002003F064F9002003F061F90020AE
:1025D00003F05EF9002003F05BF9002003F058F9E6
:1025E000002003F055F9002003F052F9002003F019
:1025F0004FF9002003F04CF9002003F049F90020C6
:1026000003F046F9002003F043F9002003F040F9FD
:10261000E02003F043F9162003F03AF9002003F01C
:1026200037F91C2003F034F9002003F031F92120A0
:1026300003F02EF9002003F02BF9362003F028F9DF
:10264000002003F025F9462003F022F9002003F0D2
:102650001FF9522003F01CF9002003F019F964203F
:1026600003F016F9002003F013F97A2003F010F9B3
:10267000002003F00DF98B2003F00AF9002003F08D
:1026800007F9992003F004F9002003F001F9A820CC
:1026900003F0FEF8002003F0FBF8B92003F0F8F88F
:1026A000002003F0F5F8C42003F0F2F8002003F056
:1026B000EFF8CA2003F0ECF8002003F0E9F8D2208C
:1026C00003F0E6F8002003F0E3F8D92003F0E0F887
:1026D000002003F0DDF8E02003F0DAF8002003F03A
:1026E000D7F8F32003F0D4F8002003F0D1F8E1206C
:1026F00003F0D4F8162003F0CBF8002003F0C8F85C
:102700001C2003F0C5F8002003F0C2F8222003F0DB
:10271000BFF8002003F0BCF8362003F0B9F8002021
:1027200003F0B6F8452003F0B3F8002003F0B0F84A
:10273000522003F0ADF8002003F0AAF8642003F063
:10274000A7F8002003F0A4F87A2003F0A1F80020F5
:1027500003F09EF88B2003F09BF8002003F098F81C
:10276000992003F095F8002003F092F8A82003F0D8
:102770008FF8002003F08CF8B92003F089F80020CE
:1027800003F086F8C42003F083F8002003F080F8FB
:10279000CA2003F07DF8002003F07AF8D22003F07D
:1027A00077F8002003F074F8D82003F071F80020C7
:1027B00003F06EF8E02003F06BF8002003F068F8F7
:1027C000F32003F065F8002003F062F8E22003F044
:1027D00065F8052003F05CF8002003F059F80B20A1
:1027E00003F056F8002003F053F81B2003F050F8D4
:1027F000002003F04DF8342003F04AF8002003F0E5
:1028000047F8442003F044F8002003F041F84F203B
:1028100003F03EF8002003F03BF8612003F038F8A5
:10282000002003F035F8792003F032F8002003F09F
:102830002FF8882003F02CF8002003F029F89720C7
:1028400003F026F8002003F023F8A62003F020F878
:10285000002003F01DF8B72003F01AF8002003F061
:1028600017F8C22003F014F8002003F011F8C72075
:1028700003F00EF8002003F00BF8D12003F008F865
:10288000002003F005F8D62003F002F8002002F043
:10289000FFFFDD2002F0FCFF002002F0F9FFF32033
:1028A00002F0F6FF002002F0F3FFE32002F0F6FF53
:1028B000052002F0EDFF002002F0EAFF0A2002F0FE
:1028C000E7FF002002F0E4FF1C2002F0E1FF0020FF
:1028D00002F0DEFF332002F0DBFF002002F0D8FF21
:1028E000442002F0D5FF002002F0D2FF502002F079
:1028F000CFFF002002F0CCFF622002F0C9FF0020D1
:1029000002F0C6FF782002F0C3FF002002F0C0FFF3
:10291000882002F0BDFF002002F0BAFF972002F0ED
:10292000B7FF002002F0B4FFA62002F0B1FF0020A4
:1029300002F0AEFFB72002F0ABFF002002F0A8FFCC
:10294000C22002F0A5FF002002F0A2FFC72002F083
:102950009FFF002002F09CFFD12002F099FF002091
:1029600002F096FFD52002F093FF002002F090FFC6
:10297000DD2002F08DFF002002F08AFFF32002F03C
:1029800087FF002002F084FFE42002F087FF01208F
:1029900002F07EFF002002F07BFF012002F078FFB2
:1029A000002002F075FF022002F072FF002002F00A
:1029B0006FFF2A2002F06CFF002002F069FF3C202C
:1029C00002F066FF002002F063FF4B2002F060FF80
:1029D000002002F05DFF5D2002F05AFF002002F0AF
:1029E00057FF742002F054FF002002F051FF8420B2
:1029F00002F04EFF002002F04BFF932002F048FF50
:102A0000002002F045FFA22002F042FF002002F069
:102A10003FFFB32002F03CFF002002F039FFBE2050
:102A200002F036FF002002F033FFC42002F030FF36
:102A3000002002F02DFFCD2002F02AFF002002F03E
:102A400027FFD32002F024FF002002F021FFDD2029
:102A500002F01EFF002002F01BFFF32002F018FF1F
:102A6000002002F015FFE52002F018FF002002F020
:102A70000FFF002002F00CFF002002F009FF0020F1
:102A800002F006FF022002F003FF002002F000FF28
:102A9000292002F0FDFE002002F0FAFE3C2002F0A8
:102AA000F7FE002002F0F4FE4B2002F0F1FE0020C1
:102AB00002F0EEFE5D2002F0EBFE002002F0E8FEE8
:102AC000742002F0E5FE002002F0E2FE842002F015
:102AD000DFFE002002F0DCFE932002F0D9FE002091
:102AE00002F0D6FEA22002F0D3FE002002F0D0FEBB
:102AF000B32002F0CDFE002002F0CAFEBE2002F09C
:102B0000C7FE002002F0C4FEC42002F0C1FE002077
:102B100002F0BEFECD2002F0BBFE002002F0B8FEA7
:102B2000D32002F0B5FE002002F0B2FEDC2002F05D
:102B3000AFFE002002F0ACFEF32002F0A9FE002060
:102B400002F0A6FEE62002F0A9FE112002F0A0FE8F
:102B5000002002F09DFE342002F09AFE002002F0D8
:102B600097FE562002F094FE002002F091FE76209F
:102B700002F08EFE002002F08BFE772002F088FE2D
:102B8000002002F085FE662002F082FE002002F0A6
:102B90007FFE882002F07CFE002002F079FE992062
:102BA00002F076FE002002F073FEBB2002F070FE01
:102BB000002002F06DFE992002F06AFE002002F073
:102BC00067FE662002F064FE002002F061FE5520E0
:102BD00002F05EFE002002F05BFE552002F058FE7F
:102BE000002002F055FE452002F052FE002002F0C7
:102BF0004FFE432002F04CFE002002F049FE44202C
:102C000002F046FE002002F043FEE72002F046FEFE
:102C1000322002F03DFE002002F03AFE552002F084
:102C200037FE002002F034FE762002F031FE002054
:102C300002F02EFE662002F02BFE002002F028FE9D
:102C4000672002F025FE002002F022FE672002F03D
:102C50001FFE002002F01CFE872002F019FE00205B
:102C600002F016FE992002F013FE002002F010FE82
:102C7000BB2002F00DFE002002F00AFE992002F0B7
:102C800007FE002002F004FE772002F001FE002083
:102C900002F0FEFD442002F0FBFD002002F0F8FDF2
:102CA000562002F0F5FD002002F0F2FD232002F094
:102CB000EFFD002002F0ECFD332002F0E9FD0020E2
:102CC00002F0E6FD452002F0E3FD002002F0E0FD09
:102CD000E82002F0E3FD002002F0DAFD002002F01F
:102CE000D7FD992002F0D4FD002002F0D1FD87200D
:102CF00002F0CEFD002002F0CBFD882002F0C8FDDE
:102D0000002002F0C5FD772002F0C2FD002002F095
:102D1000BFFD662002F0BCFD002002F0B9FD882056
:102D200002F0B6FD002002F0B3FDAA2002F0B0FDD3
:102D3000002002F0ADFDBB2002F0AAFD002002F051
:102D4000A7FD992002F0A4FD002002F0A1FD66205D
:102D500002F09EFD002002F09BFD552002F098FD40
:102D6000002002F095FD552002F092FD002002F0B7
:102D70008FFD442002F08CFD002002F089FD4420EC
:102D800002F086FD002002F083FD552002F080FD58
:102D9000002002F07DFDE92002F080FDAA2002F073
:102DA00077FD002002F074FD002002F071FD00208C
:102DB00002F06EFD002002F071FDAA2002F068FD15
:102DC000CF2002F06BFD002002F062FD002002F037
:102DD0005FFD002002F05CFD002002F059FD0020A4
:102DE00002F056FD002002F053FD002002F050FDDD
:102DF000002002F04DFD002002F04AFD002002F00C
:102E000047FD002002F044FD002002F041FD0020BB
:102E100002F03EFD002002F03BFD002002F038FDF4
:102E2000002002F035FD002002F032FDF02002F01B
:102E300035FD002002F02CFD502002F029FD00207D
:102E400002F026FD002002F023FD002002F020FD0C
:102E5000F32002F023FD002002F01AFDF92002F019
:102E60001DFD062002F014FD102002F011FD2920A6
:102E700002F00EFD002002F00BFD3A2002F00EFDE4
:102E8000552002F005FD112002F008FD642004F039
:102E9000EDFD292002F002FD352002F0FFFC0020AC
:102EA00002F0F6FC512002F0F9FCFF2002F0F0FCE9
:102EB000532002F0F3FC2C2002F0EAFC552002F033
:102EC000EDFC822002F0E4FC2C2002F0E7FC02F092
:102ED000E9B8FE48808845F2105188427ED15521DC
:102EE0004FF4704002F0EAFCAA214FF2010002F018
:102EF000E5FC52214FF2020002F0E0FC08214FF203
:102F0000030002F0DBFC01214FF2040002F0D6FCCA
:102F10000D214FF4304002F0D1FC0D214BF20100A5
:102F200002F0CCFC0D214BF2020002F0C7FC342170
:102F30004FF4364002F0C2FC34214BF2016002F043
:102F4000BDFC34214BF2026002F0B8FC0D214FF4BD
:102F5000314002F0B3FC0D214BF2011002F0AEFC47
:102F60000D214BF2021002F0A9FC34214FF437403E
:102F700002F0A4FC34214BF2017002F09FFC3421DA
:102F80004BF2027002F09AFC00214FF4324002F042
:102F900095FC00214BF2012002F090FC00214BF245
:102FA000022002F08BFC24214FF4384002F086FC12
:102FB00024214BF6010002F081FC24214BF6020093
:102FC00002F07CFC01214FF43F4002F077FC0F211E
:102FD0004FF4334002F072FC0F2100E0FEE34BF2AD
:102FE000013002F06BFC0F214BF2023002F066FC64
:102FF00034214FF4394002F061FC34214BF60110CA
:1030000002F05CFC34214BF6021002F057FC082160
:103010004FF4354002F052FC08214BF2015002F00F
:103020004DFC08214BF2025002F048FC03214FF402
:10303000424002F043FC24214FF43A4002F03EFCAF
:1030400024214BF6012002F039FC24214BF602200A
:1030500002F034FC00214FF43C4002F02FFC7821B8
:103060004BF6014002F02AFC00214BF6024002F030
:1030700025FC00214FF43D4002F020FC78214BF666
:10308000015002F01BFC00214BF6025002F016FC2E
:1030900000214FF43E4002F011FC64214BF6016028
:1030A00002F00CFC00214FF4514002F007FC3321E8
:1030B0004DF2011002F002FC00214DF2021002F06C
:1030C000FDFB34214DF2031002F0F8FB00214DF21C
:1030D000041002F0F3FB3A214DF2051002F0EEFB72
:1030E00000214DF2061002F0E9FB4A214DF20710D3
:1030F00002F0E4FB00214DF2081002F0DFFB5C213E
:103100004DF2091002F0DAFB00214DF20A1002F034
:10311000D5FB81214DF20B1002F0D0FB00214DF2C6
:103120000C1002F0CBFBA6214DF20D1002F0C6FBF5
:1031300000214DF20E1002F0C1FBE5214DF20F10FF
:1031400002F0BCFB01214DF2101002F0B7FB13217D
:103150004DF2111002F0B2FB01214DF2121002F0FB
:10316000ADFB54214DF2131002F0A8FB01214DF2EA
:10317000141002F0A3FB82214DF2151002F09EFB09
:1031800001214DF2161002F099FBCA214DF21710E1
:1031900002F094FB02214DF2181002F08FFB002187
:1031A0004DF2191002F08AFB02214DF21A1002F0C2
:1031B00085FB01214DF21B1002F080FB02214DF234
:1031C0001C1002F07BFB34214DF21D1002F076FB47
:1031D00002214DF21E1002F071FB67214DF21F100B
:1031E00002F06CFB02214DF2201002F067FB8421FB
:1031F0004DF2211002F062FB02214DF2221002F08A
:103200005DFBA4214DF2231002F058FB02214DF288
:10321000241002F053FBB7214DF2251002F04EFBB3
:1032200002214DF2261002F049FBCF214DF227106A
:1032300002F044FB02214DF2281002F03FFBDE2198
:103240004DF2291002F03AFB02214DF22A1002F051
:1032500035FBF2214DF22B1002F030FB02214DF232
:103260002C1002F02BFBFE214DF22D1002F026FB5C
:1032700003214DF22E1002F021FB10214DF22F10F0
:1032800002F01CFB03214DF2301002F017FB33213A
:103290004DF2311002F012FB03214DF2321002F018
:1032A0000DFB6D214DF2331002F008FB00214FF4AD
:1032B000524002F003FB33214DF2012002F0FEFAEE
:1032C00000214DF2022002F0F9FA01E0460100204F
:1032D00034214DF2032002F0F1FA00214DF20420D6
:1032E00002F0ECFA3A214DF2052002F0E7FA002153
:1032F0004DF2062002F0E2FA4A214DF2072002F0D8
:10330000DDFA00214DF2082002F0D8FA5C214DF2DE
:10331000092002F0D3FA00214DF20A2002F0CEFA81
:1033200081214DF20B2002F0C9FA00214DF20C2050
:1033300002F0C4FAA6214DF20D2002F0BFFA0021DE
:103340004DF20E2002F0BAFAE5214DF20F2002F004
:10335000B5FA01214DF2102002F0B0FA13214DF21E
:10336000112002F0ABFA01214DF2122002F0A6FA70
:1033700054214DF2132002F0A1FA01214DF2142044
:1033800002F09CFA82214DF2152002F097FA0121F9
:103390004DF2162002F092FACA214DF2172002F0E7
:1033A0008DFA02214DF2182002F088FA00214DF228
:1033B000192002F083FA02214DF21A2002F07EFA5F
:1033C00001214DF21B2002F079FA02214DF21C205E
:1033D00002F074FA34214DF21D2002F06FFA02213E
:1033E0004DF21E2002F06AFA67214DF21F2002F012
:1033F00065FA02214DF2202002F060FA84214DF29C
:10340000212002F05BFA02214DF2222002F056FA4E
:10341000A4214DF2232002F051FA02214DF2242082
:1034200002F04CFAB7214DF2252002F047FA0221B2
:103430004DF2262002F042FACF214DF2272002F071
:103440003DFA02214DF2282002F038FADE214DF239
:10345000292002F033FA02214DF22A2002F02EFA3E
:10346000F2214DF22B2002F029FA02214DF22C20FC
:1034700002F024FAFE214DF22D2002F01FFA032162
:103480004DF22E2002F01AFA10214DF22F2002F0F8
:1034900015FA03214DF2302002F010FA33214DF2DB
:1034A000312002F00BFA03214DF2322002F006FA2D
:1034B0006D214DF2332002F001FA00214FF4534008
:1034C00002F0FCF933214DF2013002F0F7F900214E
:1034D0004DF2023002F0F2F934214DF2033002F0E5
:1034E000EDF900214DF2043002F0E8F93A214DF2F5
:1034F000053002F0E3F900214DF2063002F0DEF96A
:103500004A214DF2073002F0D9F900214DF208307E
:1035100002F0D4F95C214DF2093002F0CFF900211C
:103520004DF20A3002F0CAF981214DF20B3002F05F
:10353000C5F900214DF20C3002F0C0F9A6214DF280
:103540000D3002F0BBF900214DF20E3002F0B6F959
:10355000E5214DF20F3002F0B1F901214DF21030AA
:1035600002F0ACF913214DF2113002F0A7F901215C
:103570004DF2123002F0A2F954214DF2133002F054
:103580009DF901214DF2143002F098F982214DF29B
:10359000153002F093F901214DF2163002F08EF948
:1035A000CA214DF2173002F089F902214DF218308C
:1035B00002F084F900214DF2193002F07FF9022166
:1035C0004DF21A3002F07AF901214DF21B3002F06F
:1035D00075F902214DF21C3002F070F934214DF2E0
:1035E0001D3002F06BF902214DF21E3002F066F937
:1035F00067214DF21F3002F061F902214DF22030B7
:1036000002F05CF984214DF2213002F057F90221D9
:103610004DF2223002F052F9A4214DF2233002F093
:103620004DF902214DF2243002F048F9B7214DF254
:10363000253002F043F902214DF2263002F03EF926
:10364000CF214DF2273002F039F902214DF2283016
:1036500002F034F9DE214DF2293002F02FF9022177
:103660004DF22A3002F02AF9F2214DF22B3002F00D
:1036700025F902214DF22C3002F020F9FE214DF205
:103680002D3002F01BF903214DF22E3002F016F915
:1036900010214DF22F3002F011F903214DF230309C
:1036A00002F00CF933214DF2313002F007F9032119
:1036B0004DF2323002F002F96D214DF2333002F05A
:1036C000FDF800214FF4544002F0F8F833214DF298
:1036D000014002F0F3F800214DF2024002F0EEF852
:1036E00034214DF2034002F0E9F800214DF204408C
:1036F00002F0E4F83A214DF2054002F0DFF8002133
:103700004DF2064002F0DAF84A214DF2074002F08D
:10371000D5F800214DF2084002F0D0F85C214DF2BE
:10372000094002F0CBF800214DF20A4002F0C6F841
:1037300081214DF20B4002F0C1F800214DF20C4006
:1037400002F0BCF8A6214DF20D4002F0B7F80021BE
:103750004DF20E4002F0B2F8E5214DF20F4002F0BA
:10376000ADF801214DF2104002F0A8F813214DF2FE
:10377000114002F0A3F801214DF2124002F09EF830
:1037800054214DF2134002F099F801214DF21440FA
:1037900002F094F882214DF2154002F08FF80121D9
:1037A0004DF2164002F08AF8CA214DF2174002F09D
:1037B00085F802214DF2184002F080F800214DF208
:1037C000194002F07BF802214DF21A4002F076F81F
:1037D00001214DF21B4002F071F800E004E30221E8
:1037E0004DF21C4002F06AF834214DF21D4002F007
:1037F00065F802214DF21E4002F060F867214DF29B
:103800001F4002F05BF802214DF2204002F056F812
:1038100084214DF2214002F051F802214DF2224064
:1038200002F04CF8A4214DF2234002F047F80221A7
:103830004DF2244002F042F8B7214DF2254002F04B
:103840003DF802214DF2264002F038F8CF214DF22A
:10385000274002F033F802214DF2284002F02EF802
:10386000DE214DF2294002F029F802214DF22A40D2
:1038700002F024F8F2214DF22B4002F01FF8022151
:103880004DF22C4002F01AF8FE214DF22D4002F0CC
:1038900015F803214DF22E4002F010F810214DF2E0
:1038A0002F4002F00BF803214DF2304002F006F8F1
:1038B00033214DF2314002F001F803214DF2324044
:1038C00001F0FCFF6D214DF2334001F0F7FF0021C4
:1038D0004FF4554001F0F2FF33214DF2015001F059
:1038E000EDFF00214DF2025001F0E8FF34214DF2CE
:1038F000035001F0E3FF00214DF2045001F0DEFF20
:103900003A214DF2055001F0D9FF00214DF2065049
:1039100001F0D4FF4A214DF2075001F0CFFF002102
:103920004DF2085001F0CAFF5C214DF2095001F040
:10393000C5FF00214DF20A5001F0C0FF81214DF278
:103940000B5001F0BBFF00214DF20C5001F0B6FF0F
:10395000A6214DF20D5001F0B1FF00214DF20E50A5
:1039600001F0ACFFE5214DF20F5001F0A7FF01215E
:103970004DF2105001F0A2FF13214DF2115001F051
:103980009DFF01214DF2125001F098FF54214DF29C
:10399000135001F093FF01214DF2145001F08EFFFE
:1039A00082214DF2155001F089FF01214DF2165090
:1039B00001F084FFCA214DF2175001F07FFF022170
:1039C0004DF2185001F07AFF00214DF2195001F02C
:1039D00075FF02214DF21A5001F070FF01214DF2E6
:1039E0001B5001F06BFF02214DF21C5001F066FFED
:1039F00034214DF21D5001F061FF02214DF21E50A5
:103A000001F05CFF67214DF21F5001F057FF0221CA
:103A10004DF2205001F052FF84214DF2215001F06F
:103A20004DFF02214DF2225001F048FFA4214DF23A
:103A3000235001F043FF02214DF2245001F03EFFDC
:103A4000B7214DF2255001F039FF02214DF22650E9
:103A500001F034FFCF214DF2275001F02FFF02215A
:103A60004DF2285001F02AFFDE214DF2295001F0DD
:103A700025FF02214DF22A5001F020FFF2214DF2E4
:103A80002B5001F01BFF02214DF22C5001F016FFCC
:103A9000FE214DF22D5001F011FF03214DF22E5069
:103AA00001F00CFF10214DF22F5001F007FF032110
:103AB0004DF2305001F002FF33214DF2315001F050
:103AC000FDFE03214DF2325001F0F8FE6D214DF262
:103AD000335001F0F3FE00214FF4564001F0EEFEAA
:103AE00033214DF2016001F0E9FE00214DF2026048
:103AF00001F0E4FE34214DF2036001F0DFFE00210D
:103B00004DF2046001F0DAFE3A214DF2056001F059
:103B1000D5FE00214DF2066001F0D0FE4A214DF2A3
:103B2000076001F0CBFE00214DF2086001F0C6FEF7
:103B30005C214DF2096001F0C1FE00214DF20A60E6
:103B400001F0BCFE81214DF20B6001F0B7FE0021B7
:103B50004DF20C6001F0B2FEA6214DF20D6001F0B5
:103B6000ADFE00214DF20E6001F0A8FEE5214DF200
:103B70000F6001F0A3FE01214DF2106001F09EFEE6
:103B800013214DF2116001F099FE01214DF21260F6
:103B900001F094FE54214DF2136001F08FFE0121DB
:103BA0004DF2146001F08AFE82214DF2156001F0A1
:103BB00085FE01214DF2166001F080FECA214DF212
:103BC000176001F07BFE02214DF2186001F076FED5
:103BD00000214DF2196001F071FE02214DF21A60D0
:103BE00001F06CFE01214DF21B6001F067FE022125
:103BF0004DF21C6001F062FE34214DF21D6001F0B7
:103C00005DFE02214DF21E6001F058FE67214DF26B
:103C10001F6001F053FE02214DF2206001F04EFEC4
:103C200084214DF2216001F049FE02214DF2226013
:103C300001F044FEA4214DF2236001F03FFE022179
:103C40004DF2246001F03AFEB7214DF2256001F0FB
:103C500035FE02214DF2266001F030FECF214DF2FB
:103C6000276001F02BFE02214DF2286001F026FEB4
:103C7000DE214DF2296001F021FE02214DF22A6081
:103C800001F01CFEF2214DF22B6001F017FE022123
:103C90004DF22C6001F012FEFE214DF22D6001F07C
:103CA0000DFE03214DF22E6001F008FE10214DF2B1
:103CB0002F6001F003FE03214DF2306001F0FEFDA4
:103CC00033214DF2316001F0F9FD03214DF23260F4
:103CD00001F0F4FD6D214DF2336001F0EFFD55214F
:103CE0004FF4704001F0EAFDAA214FF2010001F00B
:103CF000E5FD52214FF2020001F0E0FD08214FF2F4
:103D0000030001F0DBFD00214FF2040001F0D6FDBD
:103D1000CC214FF4314001F0D1FD00214BF20110D4
:103D200001F0CCFD05214FF4364001F0C7FD7021B4
:103D30004FF4374001F0C2FD70214BF2017001F0E9
:103D4000BDFD01214FF4384001F0B8FD03214BF6D1
:103D5000010001F0B3FD03214BF6020001F0AEFDBE
:103D600003214BF6030001F0A9FD02214FF43C4072
:103D700001F0A4FD00214BF6014001F09FFD002160
:103D80004BF6024001F09AFDD0214FF4494001F07A
:103D900095FD02214CF6011001F090FD50214CF6EA
:103DA000021001F08BFD50214CF6031001F086FD4E
:103DB00050214CF6041001F081FD00214FF45450C5
:103DC00001F07CFD55214FF4685001F077FD4FF470
:103DD000885001F063FD782003F06EFE4FF424500C
:103DE00001F05CFD01F05EB9FE48808849F22531A2
:103DF00088427DD147F6F001E52001F05FFD4FF4E8
:103E00008071012001F05AFD4FF4E061022001F0C1
:103E100055FD41F23001032001F050FD0021042046
:103E200001F04CFD40F20221082001F047FD002185
:103E3000092001F043FD00210A2001F03FFD00218F
:103E40000C2001F03BFD00210D2001F037FD002189
:103E50000F2001F033FD0021102001F02FFD07217C
:103E6000112001F02BFD0021122001F027FD00217F
:103E7000132001F023FD0021072001F01FFD41F276
:103E80009061102001F01AFD40F22721112001F06D
:103E900015FD9D21122001F011FD4FF4C851132092
:103EA00001F00CFD2521292001F008FD0D212B201A
:103EB00001F004FD0721302001F000FD40F2033144
:103EC000312001F0FBFC0321322001F0F7FC40F22D
:103ED0000621352001F0F2FC0821362001F0EEFC2D
:103EE00040F20641372001F0E9FC4FF4417100E057
:103EF00058E0382001F0E2FC0721392001F0DEFC17
:103F000040F202613C2001F0D9FC08213D2001F083
:103F1000D5FC0021502001F0D1FCEF21512001F00F
:103F2000CDFC0021522001F0C9FC40F23F1153208A
:103F300001F0C4FC4FF42741602001F0BFFC0121D7
:103F4000612001F0BBFC00216A2001F0B7FC0021D8
:103F5000802001F0B3FC0021812001F0AFFC0021A2
:103F6000822001F0ABFC0021832001F0A7FC00219E
:103F7000842001F0A3FC0021852001F09FFC10218A
:103F8000902001F09BFC4FF4C061922001F096FC60
:103F900040F23311072001F091FC2221002001F0B2
:103FA0008DFC1FE78F48808849F2283188427DD1F7
:103FB00041F28F01EC2001F081FC41F23421EF202D
:103FC00001F07CFC4FF48071012001F077FC4FF48C
:103FD000E061022001F072FC41F23001032001F0A7
:103FE0006DFC0021042001F069FC40F20221082050
:103FF00001F064FC0021092001F060FC00210A208E
:1040000001F05CFC01210C2001F058FC00210D2086
:1040100001F054FC00210F2001F050FC0021102081
:1040200001F04CFC0721112001F048FC0021122076
:1040300001F044FC0021132001F040FC0121072085
:1040400001F03CFC322003F011FD41F290411020C0
:1040500001F034FC40F22721112001F02FFC322026
:1040600003F004FD8A21122001F028FC322003F025
:10407000FDFC4FF4D051132001F020FC0621292033
:1040800001F01CFC0D212B2001F018FC322003F064
:10409000EDFC0021202001F011FC0021212001F085
:1040A0000DFC322003F0E2FC002100E075E030203E
:1040B00001F004FC40F20461312001F0FFFB40F20A
:1040C0000531322001F0FAFB0021352001F0F6FB2A
:1040D00040F60941362001F0F1FB4FF40171372021
:1040E00001F0ECFB40F20131382001F0E7FB40F237
:1040F0000771392001F0E2FB00213C2001F0DEFBDA
:1041000040F60A213D2001F0D9FB322003F0AEFC3D
:104110000021502001F0D2FBEF21512001F0CEFB15
:104120000021522001F0CAFB40F23F11532001F060
:10413000C5FB4FF42741602001F0C0FB0121612045
:1041400001F0BCFB00216A2001F0B8FB00218020B7
:1041500001F0B4FB0021812001F0B0FB002182209E
:1041600001F0ACFB0021832001F0A8FB002184209A
:1041700001F0A4FB0021852001F0A0FB102190207C
:1041800001F09CFB4FF4C061922001F097FB40F2DC
:104190003311072001F092FB24E61248808849F28F
:1041A000203188427ED10021084601F087FB4FF480
:1041B0008071012001F082FB4FF4E061022001F0E8
:1041C0007DFB41F23001032001F078FB0021042047
:1041D00001F074FB40F20221082001F06FFB002186
:1041E000092001E04601002001F068FB00210A20BF
:1041F00001F064FB01210C2001F060FB00210D2087
:1042000001F05CFB00210F2001F058FB322003F08D
:104210002DFC40F20111072001F050FB322003F089
:1042200025FC4FF48651102001F048FB0721112096
:1042300001F044FB4FF48871122001F03FFB4FF472
:104240003061132001F03AFB0021292001F036FBF8
:1042500044F210012B2001F031FB0021502001F02D
:104260002DFBEF21512001F029FB0021522001F00C
:1042700025FB40F23F11532001F020FB4FF41C516D
:10428000602001F01BFB0121612001F017FB0021E0
:104290006A2001F013FB0021802001F00FFB0021B8
:1042A000812000E030E001F009FB0021822001F0D4
:1042B00005FB0021832001F001FB0021842001F097
:1042C000FDFA0021852001F0F9FA1021902001F07B
:1042D000F5FA0021922001F0F1FA0121932001F07A
:1042E000EDFA4FF48871952001F0E8FA002197204B
:1042F00001F0E4FA0021982001F0E0FA40F2731195
:10430000072001F0DBFA6DE5FE48808849F2313183
:1043100088427DD141F21401E72001F0CFFA4FF439
:104320008071012001F0CAFA4FF40071022001F0FF
:10433000C5FA41F23801032001F0C0FA40F202212F
:10434000082001F0BBFA0021092001F0B7FA002192
:104350000A2001F0B3FA00210C2001F0AFFA00218D
:104360000D2001F0ABFA00210F2001F0A7FA002187
:10437000102001F0A3FA0721112001F09FFA00217B
:10438000122001F09BFA0021132001F097FAC820B7
:1043900003F06CFB41F29061102001F08FFA40F2C3
:1043A0002721112001F08AFA322003F05FFB0C2153
:1043B000122001F083FA322003F058FB4FF4006121
:1043C000132001F07BFA1121292001F077FA0B214B
:1043D0002B2001F073FA322003F048FB002120204B
:1043E00001F06CFA40F23F11212001F067FA002140
:1043F000302001F063FA4FF48371312001F05EFA4E
:104400000021322001F05AFA4FF40171352000E00A
:1044100064E001F053FA41F20A61362001F04EFAED
:1044200040F20771372001F049FA4FF483713820C8
:1044300001F044FA40F20771392001F03FFA40F2EE
:1044400002413C2001F03AFA40F60F413D2001F0D4
:1044500035FA0021502001F031FAEF21512001F00E
:104460002DFA0021522001F029FA40F23F11532089
:1044700001F024FA4FF41C51602001F01FFA0121D1
:10448000612001F01BFA00216A2001F017FA0021D7
:10449000802001F013FA0021812001F00FFA0021A1
:1044A000822001F00BFA0021832001F007FA00219D
:1044B000842001F003FA0021852001F0FFF910218A
:1044C000902001F0FBF94FF4C061922001F0F6F961
:1044D00040F23311072001F0F1F983E48948808824
:1044E00045F2084188427DD14FF48071012001F0EE
:1044F000E5F94FF4E061022001F0E0F941F230010A
:10450000032001F0DBF90021042001F0D7F940F28B
:104510000721082001F0D2F90021092001F0CEF98D
:1045200000210A2001F0CAF900210C2001F0C6F98F
:1045300000210D2001F0C2F900210F2001F0BEF989
:10454000142003F093FA41F2B061102001F0B6F9A3
:104550000121112001F0B2F90121172001F0AEF97B
:104560004FF49C71122001F0A9F94FF4006113205F
:1045700001F0A4F90921292001F0A0F909212A203C
:1045800001F09CF90021A42001F098F900215020AD
:1045900001F094F9EF21512001F090F9002152200F
:1045A00001F08CF940F23F11532001F087F94FF4EC
:1045B0001C51602001F082F90121612001F07EF997
:1045C00000216A2001F07AF90021802001F076F9BB
:1045D0000021812001F072F90021822001F06EF9A2
:1045E000002100E024E0832001F068F9002184200C
:1045F00001F064F90021852001F060F91321902079
:1046000001F05CF90021922001F058F90321932078
:1046100001F054F94FF48871952001F04FF940F200
:104620007311072001F04AF9322003F01FFAB8E4B1
:104630003448808841F2055188427DD1002107200D
:1046400001F03CF9322003F011FA4FF48E71122080
:1046500001F034F90121A42001F030F90F210820E4
:1046600001F02CF908210A2001F028F908210D2079
:1046700001F024F940F20771302001F01FF9072101
:10468000312001F01BF940F20361322001F016F9EC
:104690004FF4E061332001F011F940F2022134209F
:1046A00001F00CF90221352001F008F941F60F71F3
:1046B000362001F003F940F20771372001F0FEF8CF
:1046C0000021382001F0FAF80021392001F0F6F835
:1046D00040F207713A2001F0F1F800213B2001F08F
:1046E000EDF807213C2001F0E9F800213D2001F020
:1046F000E5F8322003F0BAF90121072001F0DEF8D5
:10470000012101E046010020172001F0D7F83220F6
:1047100003F0ACF94FF4BD51102001F0CFF840F296
:104720001721112001F0CAF84FF48F71122001F007
:10473000C5F84FF4706100E098E0132001F0BEF876
:1047400000212A2001F0BAF80A21292001F0B6F848
:104750004FF49F71122001F0B1F80021502001F0B8
:10476000ADF8EF21512001F0A9F80021522001F00D
:10477000A5F840F23F11532001F0A0F84FF41C516E
:10478000602001F09BF80121612001F097F80021E1
:104790006A2001F093F80021802001F08FF80021B9
:1047A000812001F08BF80021822001F087F80021A0
:1047B000832001F083F80021842001F07FF800219C
:1047C000852001F07BF81321902001F077F84FF459
:1047D0004071922001F072F80521932001F06EF8EB
:1047E0000021952001F06AF80021972001F066F879
:1047F0000021982001F062F84FF48071012001F04F
:104800005DF84FF4E061022001F058F841F2380100
:10481000032001F053F80021042001F04FF800219B
:104820000C2001F04BF800210F2001F047F8002187
:10483000202001F043F80021212001F03FF8212140
:10484000072001F03BF8142003F010F96121072044
:1048500001F034F8142003F009F940F27311072035
:1048600001F02CF8142003F001F995E4FE4880884B
:104870004BF2055188427CD10021084601F01EF818
:104880000021084601F01AF80021084601F016F848
:104890000021084601F012F80121A42001F00EF8D1
:1048A000142003F0E3F84FF41C51602001F006F8E7
:1048B00040F20221082001F001F84FF40571302088
:1048C00000F0FCFF43F21571312000F0F7FF40F2D9
:1048D0000461322000F0F2FF40F61661332000F050
:1048E000EDFF42F21121342000F0E8FF4FF4A8510F
:1048F000352000F0E3FF48F20751362000F0DEFFDC
:1049000041F20741372000F0D9FF41F2034138203E
:1049100000F0D4FF2021392000F0D0FF1A21902090
:1049200000F0CCFF0021102000F0C8FF072111206B
:1049300000F0C4FF0021122000F0C0FF002113206E
:1049400000F0BCFF142003F091F84FF4E661102052
:1049500000F0B4FF40F23711112000F0AFFF142037
:1049600003F084F84FF4DC71122000F0A7FF14204C
:1049700000E085E003F07AF84FF47061132000F056
:104980009DFF80212A2000F099FF4821292000F076
:1049900095FF142003F06AF84FF48071012000F0B5
:1049A0008DFF4FF4E061022000F088FF41F23801F2
:1049B000032000F083FF40F20221082000F07EFF78
:1049C00000210A2000F07AFF00210C2000F076FF81
:1049D00000210D2000F072FF30210E2000F06EFF4C
:1049E0000021502000F06AFFEF21512000F066FF07
:1049F0000021522000F062FF40F23F11532000F0EE
:104A00005DFF4FF41C51602000F058FF0121612030
:104A100000F054FF00216A2000F050FF1121902087
:104A200000F04CFF4FF4C061922000F047FF40F2CD
:104A30000241932000F042FF0221942000F03EFF4B
:104A4000142003F013F80121072000F037FF142091
:104A500003F00CF86121072000F030FF40F27311E1
:104A6000072000F02BFF0021202000F027FF00216D
:104A7000212000F023FF2221002000F01FFF11E37E
:104A8000794880884CF2055188427CD10021084643
:104A900000F014FF0021084600F010FF142002F07F
:104AA000E5FF0021084600F009FF0021084600F05C
:104AB00005FF0021084600F001FF0021084600F034
:104AC000FDFE0121A42000F0F9FE142002F0CEFF2B
:104AD0004FF41C51602000F0F1FE40F60601082062
:104AE00000F0ECFE40F20371302000F0E7FE0121FF
:104AF000312000F0E3FE0421322000F0DFFE4FF40D
:104B00008171332000F0DAFE4FF44071342000F060
:104B1000D5FE40F20311352000F0D0FE1F213620D3
:104B200000F0CCFE40F20371372000F0C7FE0121F7
:104B3000382000F0C3FE0421392000F0BFFE15210B
:104B4000902000F0BBFE4FF48261102000F0B6FE12
:104B500040F24721112000F0B1FE4FF4DE71122027
:104B600000F0ACFE4FF46061132000F0A7FE782047
:104B700002F07CFF4FF48071012000F09FFE4FF4A3
:104B80000071022000E052E000F098FE41F2300196
:104B9000032000F093FE08210A2000F08FFE002180
:104BA0000C2000F08BFE20210E2000F087FE00215B
:104BB0000F2000F083FE0021202000F07FFE002166
:104BC000212000F07BFE3D212A2000F077FE1420FA
:104BD00002F04CFF2D21292000F070FE0021502012
:104BE00000F06CFE4DF2EF01512000F067FE002155
:104BF000522000F063FE40F23F11532000F05EFEB1
:104C00000021612000F05AFE00216A2000F056FECB
:104C10004FF44071922000F051FE0521932000F0E6
:104C20004DFE4FF48071072000F048FE3AE20E4836
:104C3000808844F2315188427ED10121002000F069
:104C40003DFE0A2002F012FF41F22861102000F020
:104C500035FE0E21122000F031FE40F639211320DE
:104C600000F02CFE0A2001E04601002002F0FEFECA
:104C70004021112000F022FE5021152000F01EFEE0
:104C80000A2002F0F3FE1E21122000F017FE0A2077
:104C900002F0ECFE4FF4B151102000F00FFE42F68E
:104CA0003921132000F00AFE0A2002F0DFFE4FF443
:104CB0008071012000F002FE4FF44071022000F0EC
:104CC000FDFD41F23801032000F0F8FD40F2022121
:104CD000082000F0F3FD08210A2000F0EFFD00217C
:104CE000302000F0EBFD40F20241312000F0E6FD03
:104CF0004FF48371322000F0E1FD40F20351332084
:104D000000F0DCFD4FF48271342000F0D7FD40F25A
:104D10000131352000F0D2FD40F20771362000F05D
:104D2000CDFD40F20531372000F0C8FD4FF402718F
:104D3000382000F0C3FD00E03EE040F60B71392062
:104D400000F0BCFD0221412000F0B8FD4FF41C51E1
:104D5000602000F0B3FD0121612000F0AFFD4FF4B1
:104D60000471902000F0AAFD4FF48571922000F0AC
:104D7000A5FD0421932000F0A1FD4FF48071A02037
:104D800000F09CFD0121072000F098FD2121072063
:104D900000F094FD2321072000F090FD332107202F
:104DA00000F08CFD40F23311072000F087FD002158
:104DB000A02000F083FD75E1BF48808844F23551A2
:104DC00088427CD13021152000F078FD10219A20F6
:104DD00000F074FD2021112000F070FD43F2284105
:104DE000102000F06BFD0221122000F067FD41F25F
:104DF0003801132000F062FD282002F037FE122156
:104E0000084600F05BFD282002F030FE43F220410E
:104E1000102000F053FD43F23801132000F04EFD46
:104E2000462002F023FE0021302000F047FD40F232
:104E30000241312000F042FD40F20731322000F003
:104E40003DFD4FF44171332000F038FD0421342042
:104E500000F034FD40F20141352000F02FFD40F21A
:104E60000771362000F02AFD40F20531372000F0AE
:104E700025FD4FF4C261382000F020FD4FF4C261DF
:104E8000392000F01BFD4FF48071012000F016FD69
:104E90004FF44071022000F011FD41F23001032077
:104EA00000F00CFD40F60801082000F007FD082185
:104EB0000A2000F003FD4FF41C51602000E033E0B5
:104EC00000F0FCFC0121612000F0F8FC4FF49F7120
:104ED000902000F0F3FC4FF48071922000F0EEFC83
:104EE0004FF48071932000F0E9FC4FF44051A02072
:104EF00000F0E4FC1021A32000F0E0FC01210720D9
:104F000000F0DCFC2121072000F0D8FC2321072041
:104F100000F0D4FC3321072000F0D0FC40F2331124
:104F2000072000F0CBFCBDE06348808841F66311A8
:104F30008842F8D1E22000F0B1FC1D2000F0A8FC6E
:104F4000022000F0A5FC042000F0A2FC642002F086
:104F5000B3FDE02000F0A2FC012000F099FC0A2043
:104F600002F084FDE02000F099FC032000F090FCAA
:104F70000C2002F07BFD012000F090FC0A2002F0E2
:104F800075FDE62000F08AFC2F2000F081FCFF2058
:104F900000F07EFCFF2000F07BFCB02000F07EFCE7
:104FA000202000F075FC002000F072FC032000F0CF
:104FB0006FFC40F21F3000F06BFC012000F068FC39
:104FC00040F2DF1000F064FC002000F061FCB4202F
:104FD00000F064FC042000F05BFC40F21F4000F095
:104FE00057FC002000F054FC2E2000F051FC002063
:104FF00000F04EFC002000F04BFC002000F048FCCC
:10500000002000F045FCB62000F048FC022000F033
:105010003FFC4FF4037000F03BFC002000F038FC34
:10502000172000F035FC152000F032FC002000F0C5
:105030002FFC002000F02CFCF02000F02FFC0320BF
:1050400000F026FC292000F029FCD02000F026FCEE
:10505000002000F01DFCBE2000F020FC052000F028
:1050600017FCFE2000F014FC012000F011FC0020D1
:1050700000F00EFC002000F00BFC002000F008FC0B
:10508000B82000F00BFC032000F002FC012000F02F
:10509000FFFBBA2000F002FC012000F0F9FB6420C5
:1050A00000F022F80020FCF77FF94FF6FF70FCF7C4
:1050B00041F91FB000BD00004601002010B50246B6
:1050C000012000E050430B1EA1F10104E1B2F9D12F
:1050D00010BD000008B5034800880090BDF800002E
:1050E00008BD00000008006C2DE9F0470446BE2012
:1050F00000F0D4FB052000F0CBFB2046FBF7BFF807
:1051000007464FF066320C4BFBF742F80546FBF7BB
:10511000C3F81FFA80F9484600F0BAFB012000F0FE
:10512000B7FBFF2000F0B4FB002000F0B1FB002033
:1051300000F0AEFBBDE8F0876666044070B504463B
:1051400000230026BA48807901280BD1B84880880E
:1051500046F60401884205D0B548808841F66311BF
:10516000884208D1B2488079F0B9B148808841F6C8
:105170006311884218D1082C15D2DFE804F0040628
:10518000080A0C0E101206240DE007240BE004247C
:1051900009E0052407E0012405E0002403E00324DE
:1051A00001E0022400BF00BFA148808849F24131DC
:1051B00088421DD09E48808846F60401884217D058
:1051C0009B48808845F21031884211D098488088E9
:1051D00045F2105188420BD09548808841F6631102
:1051E000884205D09248808849F2884188427DD122
:1051F000082C1CD2DFE804F00406090C0F12151865
:1052000000BF14E043F0800311E043F040030EE0E0
:1052100043F0C0030BE043F0200308E043F06003D9
:1052200005E043F0A00302E043F0E00300BF00BF4D
:105230007F48808845F21051884202D14FF4585679
:1052400000E036267A48808845F2103188420DD039
:105250007748808845F21051884207D0744880888A
:1052600041F66311884201D043F0080370488088FA
:1052700046F60401884201D143F002031946304644
:1052800000F01CFB6A48808841F6631188421DD0FB
:1052900003F0200068B16648008865494988884263
:1052A00014DA6348058840886149088008464580CB
:1052B0000CE05F4800885E494988884206DD5C480A
:1052C000058840885A4908800846458058488088A3
:1052D00045F21051884254D15549488900F0DEFA10
:1052E000002000F0D5FA5249498900E078E0491CD5
:1052F00088B200F0D3FA002000F0CAFA4C4949897C
:10530000891C88B200F0CAFA49490988491EC1F3CC
:105310000F2000F0BDFA46494989C91C88B200F047
:10532000BDFA43490978491EC8B200F0B1FA4049B4
:10533000888900F0B3FA002000F0AAFA3C49898974
:10534000491C88B200F0AAFA002000F0A1FA3849FE
:105350008989891C88B200F0A1FA35494988491E1B
:10536000C1F30F2000F094FA31498989C91C88B231
:1053700000F094FA2E498978491EC8B200F088FAE4
:1053800055E02B49488900F089FA002000F080FAA6
:10539000002000F07DFA26490988491EC1F30F203C
:1053A00000F076FA22490978491EC8B200F070FA76
:1053B0001F49888900F072FA002000F069FA002085
:1053C00000F066FA1A494988491EC1F30F2000F01F
:1053D0005FFA17498978491EC8B200F059FA26E0E9
:1053E000082C1CD2DFE804F004070A0D0F12151870
:1053F00043F0300313E043F0100310E043F02003C8
:105400000DE000BF0BE043F0380308E043F0280351
:1054100005E043F0180302E043F0080300BF00BFBB
:10542000032643F480531946304600F047FA70BD16
:105430004601002010B503460C468148808849F299
:105440004131884205D07E48808845F2103188423B
:1054500014D17B49488900F021FA181200F018FA9B
:10546000D8B200F015FA7649888900F017FA2012B0
:1054700000F00EFAE0B200F00BFAE0E0704880882D
:1054800046F6040188421DD16D488079012804D177
:105490006B480088401EC01A83B26949488900F0F1
:1054A000FDF9181200F0F4F9D8B200F0F1F96449EE
:1054B000888900F0F3F9201200F0EAF9E0B200F078
:1054C000E7F9BCE05E48808841F66311884247D125
:1054D0005B488079A8B95A480088401EC01A83B238
:1054E0005749488900F0DAF9002000F0D1F900208E
:1054F00000F0CEF9181200F0CBF9D8B200F0C8F9DC
:1055000016E04F49488900F0C9F9181200F0C0F9B7
:10551000D8B200F0BDF94A490988491EC1F30F20ED
:1055200000F0B6F946490978491EC8B200F0B0F952
:105530004349888900F0B2F9201200F0A9F9E0B2DD
:1055400000F0A6F93E494988491EC1F30F2000F03A
:105550009FF93B498978491EC8B200F099F96EE07D
:105560003748808845F21051884220D13449488913
:1055700000F094F9181200F08BF931494989491C5F
:1055800088B200F08BF9D8B200F082F92C498889F2
:1055900000F084F9201200F07BF929498989491C1F
:1055A00088B200F07BF9E0B200F072F947E02448DD
:1055B000808849F2884188422ED12149488900F0EB
:1055C0006DF9181200F064F9D8B200F061F91C49C5
:1055D0000988491EC1F30F2000F05AF918490978CB
:1055E000491EC8B200F054F91549888900F056F9EF
:1055F000201200F04DF9E0B200F04AF91049498854
:10560000491EC1F30F2000F043F90D498978491E66
:10561000C8B200F03DF912E009488079012804D1B0
:1056200007480088401EC01A83B2054948891946B8
:1056300000F044F902498889214600F03FF910BD85
:10564000460100202DE9F84F80460E4617461C46BD
:10565000B3462046E31704EB5373DB1021464FEAB1
:10566000E47C04EB5C7C4FEAEC0CA4EBCC0CBCF1CE
:10567000000F02D04FF0010C01E04FF0000C63442A
:10568000224604EBD27C4FEA6C0C03FB0CF3DBB23A
:105690000093A7F12000C7B2002556E00C2C07D1DB
:1056A00007EB47002B4901EB800010F8059013E051
:1056B000102C05D1284800EB071010F805900BE0DE
:1056C000182C07D107EBC700244901EB800010F824
:1056D000059001E0BDE8F88F4FF0000A2FE009F0D7
:1056E000800030B11E48028831464046FBF75CFF1F
:1056F00007E00A9828B91B48028831464046FBF764
:1057000053FF4FEA49604FEA1069701C86B2164891
:105710004088B04200DCDDE7A6EB0B00A0420AD1D6
:105720005E4608F101001FFA80F80F4800884045E6
:1057300000DCCFE706E00AF1010000F0FF0ABAF151
:10574000080FCCDB00BF681CC5B200988542A5DB02
:1057500000BFBFE7989000080C950008FC9A00086D
:105760006600002068000020460100202DE9F8476F
:1057700004460D4690469946DDE9096704F0FF0AA4
:1057800008EB04001FFA80F809EB05001FFA80F906
:1057900016E0444502DB5446A81985B24D4500DBAE
:1057A00014E0002000903A78334629462046FFF75F
:1057B00049FF304606EBD07104EB61018CB27F1CCF
:1057C00038787E2802DC38782028E2DA00BFBDE88D
:1057D000F8872DE9FF4F82B0064692461F46DDE965
:1057E0000F480020019000254DE0781B401EC1B2FB
:1057F0000A20FFF763FCBAFBF0F00A21B0FBF1F2DC
:1058000001FB1209019850BB781EA84227DDB9F1AF
:10581000000F22D108F0800078B108F00100A34603
:1058200004EBDB71491001FB0561009088B223464F
:1058300030220399FFF706FF0EE008F00100A346AF
:1058400004EBDB71491001FB0561009088B223462F
:1058500020220399FFF7F6FE13E00120019008F0E3
:105860000100A34604EBDB71491001FB05610090C8
:1058700088B209F13001CAB223460399FFF7E2FE6C
:1058800000BF681CC5B2BD42AFDB06B0BDE8F08FFB
:1058900001490880704700000008006C0149088039
:1058A00070470000FE07006C02480089024908802A
:1058B0007047000046010020FE07006C024A10807D
:1058C000921C118070470000FE07006C08B5012192
:1058D000482000F09BF82020ADF8000010208DF843
:1058E000030003208DF8020069460948FBF782FB9C
:1058F00020210748FBF714FC2020ADF80000694682
:105900000448FBF777FB20210248FBF709FC08BDA0
:10591000000C01400018014000BFFEE77047000086
:1059200070B5002100230F22C47804B3154C2468FD
:1059300004F4E064C4F5E064210AC1F10403CA4040
:10594000447804FA03F184781440214309010E4C91
:105950000678A155047804F01F050124AC400578B1
:105960006D11AD0005F1E025C5F8004109E00478AE
:1059700004F01F050124AC40044D0678761145F86B
:10598000264070BD0CED00E000E400E080E100E0A6
:1059900002490143024A1160704700000000FA0505
:1059A0000CED00E0014908627047000000000E4263
:1059B0007047000001460020034A506820F4404030
:1059C00008435060704700000010024029B1064AA9
:1059D00052690243044B5A6104E0034A526982430C
:1059E000014B5A61704700000010024029B1064A7D
:1059F000D2690243044BDA6104E0034AD26982436C
:105A0000014BDA61704700000010024029B1064ADC
:105A100092690243044B9A6104E0034A926982430B
:105A2000014B9A6170470000001002400149086074
:105A3000704700004004424230B50021002200249B
:105A400000232D4D6D6805F00C0121B1042905D00E
:105A5000082923D105E0294D056022E0274D056086
:105A60001FE0254D6D6805F47012234D6D6805F437
:105A70008034022505EB92421CB9214D5543056047
:105A80000BE01D4D6D6805F400351DB11C4D5543EF
:105A9000056002E0194D5543056002E0174D0560B1
:105AA00000BF00BF144D6D6805F0F0010909154DE8
:105AB0006B5C0568DD4045600F4D6D6805F4E06185
:105AC000090A104D6B5C4568DD4085600A4D6D68C4
:105AD00005F46051C90A0B4D6B5C4568DD40C5603B
